{
  "transactions": [
    {
      "hash": "0x0a420fda2711693fc34b95c444018377b9cfb2fd3b773c516ff56481431ebfde",
      "transactionType": "CREATE",
      "contractName": "TestYieldPool",
      "contractAddress": "0x77b565e33cb681893ea21f36454428b5690cca6a",
      "function": null,
      "arguments": null,
      "transaction": {
        "from": "0xaca8ee562e9535071535977c9976e7012b3e9dd2",
        "to": null,
        "gas": "0xf2534",
        "value": "0x0",
        "input": "0x6080604052348015600e575f5ffd5b50610cc58061001c5f395ff3fe608060405234801561000f575f5ffd5b5060043610610060575f3560e01c8063617ba0371461006457806369328dec146100795780636f307dc31461009f57806375c54224146100ca578063a0c1f15e146100dd578063d2fd155e146100ef575b5f5ffd5b6100776100723660046104d5565b610102565b005b61008c61008736600461051f565b6101cd565b6040519081526020015b60405180910390f35b6001546100b2906001600160a01b031681565b6040516001600160a01b039091168152602001610096565b6100776100d8366004610558565b610294565b5f546100b2906001600160a01b031681565b6100776100fd36600461056f565b6102f9565b6001546001600160a01b0385811691161461014c5760405162461bcd60e51b8152602060048201526005602482015264185cdcd95d60da1b60448201526064015b60405180910390fd5b5f54610167906001600160a01b0386811691339116866103d0565b5f546040516340c10f1960e01b81526001600160a01b03848116600483015260248201869052909116906340c10f19906044015f604051808303815f87803b1580156101b1575f5ffd5b505af11580156101c3573d5f5f3e3d5ffd5b5050505050505050565b6001545f906001600160a01b038581169116146102145760405162461bcd60e51b8152602060048201526005602482015264185cdcd95d60da1b6044820152606401610143565b5f54604051632770a7eb60e21b8152336004820152602481018590526001600160a01b0390911690639dc29fac906044015f604051808303815f87803b15801561025c575f5ffd5b505af115801561026e573d5f5f3e3d5ffd5b50505f5461028c92506001600160a01b0387811692501684866103d0565b509092915050565b6001545f546040516340c10f1960e01b81526001600160a01b039182166004820152602481018490529116906340c10f19906044015f604051808303815f87803b1580156102e0575f5ffd5b505af11580156102f2573d5f5f3e3d5ffd5b5050505050565b600154600160a01b900460ff161561033c5760405162461bcd60e51b8152600401610143906020808252600490820152631a5b9a5d60e21b604082015260600190565b600180546001600160a01b0384166001600160a81b031990911617600160a01b1790556040513090839083906103719061049c565b6001600160a01b03938416815292909116602083015261ffff166040820152606001604051809103905ff0801580156103ac573d5f5f3e3d5ffd5b505f80546001600160a01b0319166001600160a01b03929092169190911790555050565b604080516001600160a01b0385811660248301528416604482015260648082018490528251808303909101815260849091019091526020810180516001600160e01b03166323b872dd60e01b17905261042a908590610430565b50505050565b5f5f60205f8451602086015f885af18061044f576040513d5f823e3d81fd5b50505f513d91508115610466578060011415610473565b6001600160a01b0384163b155b1561042a57604051635274afe760e01b81526001600160a01b0385166004820152602401610143565b6106ef806105a183390190565b80356001600160a01b03811681146104bf575f5ffd5b919050565b803561ffff811681146104bf575f5ffd5b5f5f5f5f608085870312156104e8575f5ffd5b6104f1856104a9565b935060208501359250610506604086016104a9565b9150610514606086016104c4565b905092959194509250565b5f5f5f60608486031215610531575f5ffd5b61053a846104a9565b92506020840135915061054f604085016104a9565b90509250925092565b5f60208284031215610568575f5ffd5b5035919050565b5f5f60408385031215610580575f5ffd5b610589836104a9565b9150610597602084016104c4565b9050925092905056fe610100604052348015610010575f5ffd5b506040516106ef3803806106ef83398101604081905261002f916100dd565b6001600160a01b03838116608081905290831660a081905261ffff831660c0524260e05260405163095ea7b360e01b815260048101929092525f1960248301529063095ea7b3906044016020604051808303815f875af1158015610095573d5f5f3e3d5ffd5b505050506040513d601f19601f820116820180604052508101906100b99190610127565b5050505061014d565b80516001600160a01b03811681146100d8575f5ffd5b919050565b5f5f5f606084860312156100ef575f5ffd5b6100f8846100c2565b9250610106602085016100c2565b9150604084015161ffff8116811461011c575f5ffd5b809150509250925092565b5f60208284031215610137575f5ffd5b81518015158114610146575f5ffd5b9392505050565b60805160a05160c05160e05161055461019b5f395f818161019b01526101e601525f8181610127015261021301525f61016101525f818160cb01528181610277015261037801526105545ff3fe608060405234801561000f575f5ffd5b5060043610610090575f3560e01c806351618ed31161006357806351618ed3146101225780636f307dc31461015c57806370a082311461018357806378e97925146101965780639dc29fac146101bd575f5ffd5b8063057e09e51461009457806316f0115b146100c65780632986c0e51461010557806340c10f191461010d575b5f5ffd5b6100b36100a2366004610466565b5f6020819052908152604090205481565b6040519081526020015b60405180910390f35b6100ed7f000000000000000000000000000000000000000000000000000000000000000081565b6040516001600160a01b0390911681526020016100bd565b6100b36101d0565b61012061011b366004610486565b61026c565b005b6101497f000000000000000000000000000000000000000000000000000000000000000081565b60405161ffff90911681526020016100bd565b6100ed7f000000000000000000000000000000000000000000000000000000000000000081565b6100b3610191366004610466565b610329565b6100b37f000000000000000000000000000000000000000000000000000000000000000081565b6101206101cb366004610486565b61036d565b5f6101e16301e133806127106104c2565b61020b7f0000000000000000000000000000000000000000000000000000000000000000426104d9565b61024161ffff7f000000000000000000000000000000000000000000000000000000000000000016670de0b6b3a76400006104c2565b61024b91906104c2565b61025591906104ec565b61026790670de0b6b3a764000061050b565b905090565b336001600160a01b037f000000000000000000000000000000000000000000000000000000000000000016146102d55760405162461bcd60e51b81526020600482015260096024820152681bdb9b1e481c1bdbdb60ba1b60448201526064015b60405180910390fd5b6102dd6101d0565b6102ef670de0b6b3a7640000836104c2565b6102f991906104ec565b6001600160a01b0383165f908152602081905260408120805490919061032090849061050b565b90915550505050565b5f670de0b6b3a764000061033b6101d0565b6001600160a01b0384165f9081526020819052604090205461035d91906104c2565b61036791906104ec565b92915050565b336001600160a01b037f000000000000000000000000000000000000000000000000000000000000000016146103d15760405162461bcd60e51b81526020600482015260096024820152681bdb9b1e481c1bdbdb60ba1b60448201526064016102cc565b5f6103da6101d0565b6103ec670de0b6b3a7640000846104c2565b6103f691906104ec565b6001600160a01b0384165f90815260208190526040902054909150808210156104285761042382826104d9565b61042a565b5f5b6001600160a01b039094165f90815260208190526040902093909355505050565b80356001600160a01b0381168114610461575f5ffd5b919050565b5f60208284031215610476575f5ffd5b61047f8261044b565b9392505050565b5f5f60408385031215610497575f5ffd5b6104a08361044b565b946020939093013593505050565b634e487b7160e01b5f52601160045260245ffd5b8082028115828204841417610367576103676104ae565b81810381811115610367576103676104ae565b5f8261050657634e487b7160e01b5f52601260045260245ffd5b500490565b80820180821115610367576103676104ae56fea2646970667358221220ed12f1b0dd00c80b2697bbe97efa5d6e8df3207600f85c2f50745bcae4b0cb2764736f6c634300081c0033a264697066735822122041dad68c695f77ddea2533ebb60879123ff03931fe5b3a1143bdc8adbc13d19964736f6c634300081c0033",
        "nonce": "0x11",
        "chainId": "0x279f"
      },
      "additionalContracts": [],
      "isFixedGasLimit": false
    },
    {
      "hash": "0x9ac4bd8dfb3aa67ed4a7431c4ff1dd4e70944df3a609fd42e19b96090d101b95",
      "transactionType": "CALL",
      "contractName": "TestYieldPool",
      "contractAddress": "0x77b565e33cb681893ea21f36454428b5690cca6a",
      "function": "init(address,uint16)",
      "arguments": [
        "0xAB542a297D8192a1FEb25f2dbc054f3Cf4a832Bb",
        "800"
      ],
      "transaction": {
        "from": "0xaca8ee562e9535071535977c9976e7012b3e9dd2",
        "to": "0x77b565e33cb681893ea21f36454428b5690cca6a",
        "gas": "0x72b4",
        "value": "0x0",
        "input": "0xd2fd155e000000000000000000000000ab542a297d8192a1feb25f2dbc054f3cf4a832bb0000000000000000000000000000000000000000000000000000000000000320",
        "nonce": "0x12",
        "chainId": "0x279f"
      },
      "additionalContracts": [
        {
          "transactionType": "CREATE",
          "contractName": "TestYieldAToken",
          "address": "0x097fdbe4f9b8a307c04dce58999161d84bb5afd3",
          "initCode": "0x610100604052348015610010575f5ffd5b506040516106ef3803806106ef83398101604081905261002f916100dd565b6001600160a01b03838116608081905290831660a081905261ffff831660c0524260e05260405163095ea7b360e01b815260048101929092525f1960248301529063095ea7b3906044016020604051808303815f875af1158015610095573d5f5f3e3d5ffd5b505050506040513d601f19601f820116820180604052508101906100b99190610127565b5050505061014d565b80516001600160a01b03811681146100d8575f5ffd5b919050565b5f5f5f606084860312156100ef575f5ffd5b6100f8846100c2565b9250610106602085016100c2565b9150604084015161ffff8116811461011c575f5ffd5b809150509250925092565b5f60208284031215610137575f5ffd5b81518015158114610146575f5ffd5b9392505050565b60805160a05160c05160e05161055461019b5f395f818161019b01526101e601525f8181610127015261021301525f61016101525f818160cb01528181610277015261037801526105545ff3fe608060405234801561000f575f5ffd5b5060043610610090575f3560e01c806351618ed31161006357806351618ed3146101225780636f307dc31461015c57806370a082311461018357806378e97925146101965780639dc29fac146101bd575f5ffd5b8063057e09e51461009457806316f0115b146100c65780632986c0e51461010557806340c10f191461010d575b5f5ffd5b6100b36100a2366004610466565b5f6020819052908152604090205481565b6040519081526020015b60405180910390f35b6100ed7f000000000000000000000000000000000000000000000000000000000000000081565b6040516001600160a01b0390911681526020016100bd565b6100b36101d0565b61012061011b366004610486565b61026c565b005b6101497f000000000000000000000000000000000000000000000000000000000000000081565b60405161ffff90911681526020016100bd565b6100ed7f000000000000000000000000000000000000000000000000000000000000000081565b6100b3610191366004610466565b610329565b6100b37f000000000000000000000000000000000000000000000000000000000000000081565b6101206101cb366004610486565b61036d565b5f6101e16301e133806127106104c2565b61020b7f0000000000000000000000000000000000000000000000000000000000000000426104d9565b61024161ffff7f000000000000000000000000000000000000000000000000000000000000000016670de0b6b3a76400006104c2565b61024b91906104c2565b61025591906104ec565b61026790670de0b6b3a764000061050b565b905090565b336001600160a01b037f000000000000000000000000000000000000000000000000000000000000000016146102d55760405162461bcd60e51b81526020600482015260096024820152681bdb9b1e481c1bdbdb60ba1b60448201526064015b60405180910390fd5b6102dd6101d0565b6102ef670de0b6b3a7640000836104c2565b6102f991906104ec565b6001600160a01b0383165f908152602081905260408120805490919061032090849061050b565b90915550505050565b5f670de0b6b3a764000061033b6101d0565b6001600160a01b0384165f9081526020819052604090205461035d91906104c2565b61036791906104ec565b92915050565b336001600160a01b037f000000000000000000000000000000000000000000000000000000000000000016146103d15760405162461bcd60e51b81526020600482015260096024820152681bdb9b1e481c1bdbdb60ba1b60448201526064016102cc565b5f6103da6101d0565b6103ec670de0b6b3a7640000846104c2565b6103f691906104ec565b6001600160a01b0384165f90815260208190526040902054909150808210156104285761042382826104d9565b61042a565b5f5b6001600160a01b039094165f90815260208190526040902093909355505050565b80356001600160a01b0381168114610461575f5ffd5b919050565b5f60208284031215610476575f5ffd5b61047f8261044b565b9392505050565b5f5f60408385031215610497575f5ffd5b6104a08361044b565b946020939093013593505050565b634e487b7160e01b5f52601160045260245ffd5b8082028115828204841417610367576103676104ae565b81810381811115610367576103676104ae565b5f8261050657634e487b7160e01b5f52601260045260245ffd5b500490565b80820180821115610367576103676104ae56fea2646970667358221220ed12f1b0dd00c80b2697bbe97efa5d6e8df3207600f85c2f50745bcae4b0cb2764736f6c634300081c003300000000000000000000000077b565e33cb681893ea21f36454428b5690cca6a000000000000000000000000ab542a297d8192a1feb25f2dbc054f3cf4a832bb0000000000000000000000000000000000000000000000000000000000000320"
        }
      ],
      "isFixedGasLimit": false
    },
    {
      "hash": "0xf9c77928c4cb17985b1e65d41a29e5ccd36b644689a31e6da01669d9c7cc7ddf",
      "transactionType": "CALL",
      "contractName": "TestYieldPool",
      "contractAddress": "0x77b565e33cb681893ea21f36454428b5690cca6a",
      "function": "fundReserve(uint256)",
      "arguments": [
        "1000000000000"
      ],
      "transaction": {
        "from": "0xaca8ee562e9535071535977c9976e7012b3e9dd2",
        "to": "0x77b565e33cb681893ea21f36454428b5690cca6a",
        "gas": "0x6e66",
        "value": "0x0",
        "input": "0x75c54224000000000000000000000000000000000000000000000000000000e8d4a51000",
        "nonce": "0x13",
        "chainId": "0x279f"
      },
      "additionalContracts": [],
      "isFixedGasLimit": false
    },
    {
      "hash": "0x5cbf2ec94b35d811fa8c72a5f18d3d75225cf5ed7b034723416b4852bbbd4dc3",
      "transactionType": "CALL",
      "contractName": null,
      "contractAddress": "0x5c115d764f36bdb93ce5626f21c96c8f6980bdb7",
      "function": "configureAsset(address,bool,address,address,uint256,uint256)",
      "arguments": [
        "0xAB542a297D8192a1FEb25f2dbc054f3Cf4a832Bb",
        "true",
        "0x77b565e33CB681893EA21F36454428B5690CcA6A",
        "0x097FdbE4f9b8A307c04dCe58999161D84bB5afD3",
        "0",
        "0"
      ],
      "transaction": {
        "from": "0xaca8ee562e9535071535977c9976e7012b3e9dd2",
        "to": "0x5c115d764f36bdb93ce5626f21c96c8f6980bdb7",
        "gas": "0x229e2",
        "value": "0x0",
        "input": "0xc5909364000000000000000000000000ab542a297d8192a1feb25f2dbc054f3cf4a832bb000000000000000000000000000000000000000000000000000000000000000100000000000000000000000077b565e33cb681893ea21f36454428b5690cca6a000000000000000000000000097fdbe4f9b8a307c04dce58999161d84bb5afd300000000000000000000000000000000000000000000000000000000000000000000000000000000000000000000000000000000000000000000000000000000",
        "nonce": "0x14",
        "chainId": "0x279f"
      },
      "additionalContracts": [],
      "isFixedGasLimit": false
    }
  ],
  "receipts": [
    {
      "type": "0x2",
      "status": "0x1",
      "cumulativeGasUsed": "0xf2534",
      "logs": [],
      "logsBloom": "0x00000000000000000000000000000000000000000000000000000000000000000000000000000000000000000000000000000000000000000000000000000000000000000000000000000000000000000000000000000000000000000000000000000000000000000000000000000000000000000000000000000000000000000000000000000000000000000000000000000000000000000000000000000000000000000000000000000000000000000000000000000000000000000000000000000000000000000000000000000000000000000000000000000000000000000000000000000000000000000000000000000000000000000000000000000000",
      "transactionHash": "0x0a420fda2711693fc34b95c444018377b9cfb2fd3b773c516ff56481431ebfde",
      "transactionIndex": "0x1",
      "blockHash": "0x4a6a89eb3b146d885684679f41ede88038f9e81913d4572bdb51338d9ed84ef2",
      "blockNumber": "0x2bea9ef",
      "gasUsed": "0xf2534",
      "effectiveGasPrice": "0x1802caa604",
      "from": "0xaca8ee562e9535071535977c9976e7012b3e9dd2",
      "to": null,
      "contractAddress": "0x77b565e33cb681893ea21f36454428b5690cca6a"
    },
    {
      "type": "0x2",
      "status": "0x1",
      "cumulativeGasUsed": "0x88924",
      "logs": [
        {
          "address": "0xab542a297d8192a1feb25f2dbc054f3cf4a832bb",
          "topics": [
            "0x8c5be1e5ebec7d5bd14f71427d1e84f3dd0314c0f7b2291e5b200ac8c7c3b925",
            "0x000000000000000000000000097fdbe4f9b8a307c04dce58999161d84bb5afd3",
            "0x00000000000000000000000077b565e33cb681893ea21f36454428b5690cca6a"
          ],
          "data": "0xffffffffffffffffffffffffffffffffffffffffffffffffffffffffffffffff",
          "blockHash": "0x52024f08fd5b1f07598908cdea2d9a9f567d7170e49c71c876795283e4af7a3c",
          "blockNumber": "0x2bea9f1",
          "blockTimestamp": "0x6a5bc20e",
          "transactionHash": "0x9ac4bd8dfb3aa67ed4a7431c4ff1dd4e70944df3a609fd42e19b96090d101b95",
          "transactionIndex": "0x1",
          "logIndex": "0x1",
          "removed": false
        }
      ],
      "logsBloom": "0x00000000000000000000000000800040000000000010000000000000000000000000000000000000000008004000000000000000000000000000000000200000000000000000000000000000000000000000000001000000000000000000000000000000000000000000000000000000000000000000000000000000000000000000000000000000000000000000000000000000000000000000000000000000020000000000000000000000000020000000000000000000000000000000000000000000000000000000000000000000000000000000000000000000000002000010000000000000000000000000000000040000000000000000000000000000",
      "transactionHash": "0x9ac4bd8dfb3aa67ed4a7431c4ff1dd4e70944df3a609fd42e19b96090d101b95",
      "transactionIndex": "0x1",
      "blockHash": "0x52024f08fd5b1f07598908cdea2d9a9f567d7170e49c71c876795283e4af7a3c",
      "blockNumber": "0x2bea9f1",
      "gasUsed": "0x88924",
      "effectiveGasPrice": "0x1802caa604",
      "from": "0xaca8ee562e9535071535977c9976e7012b3e9dd2",
      "to": "0x77b565e33cb681893ea21f36454428b5690cca6a",
      "contractAddress": null
    },
    {
      "type": "0x2",
      "status": "0x1",
      "cumulativeGasUsed": "0x7dc56",
      "logs": [
        {
          "address": "0xab542a297d8192a1feb25f2dbc054f3cf4a832bb",
          "topics": [
            "0xddf252ad1be2c89b69c2b068fc378daa952ba7f163c4a11628f55a4df523b3ef",
            "0x0000000000000000000000000000000000000000000000000000000000000000",
            "0x000000000000000000000000097fdbe4f9b8a307c04dce58999161d84bb5afd3"
          ],
          "data": "0x000000000000000000000000000000000000000000000000000000e8d4a51000",
          "blockHash": "0x192ed236bdd9770f22977fd4c15232fa2090a3c16310998c2b1d2592f68c487e",
          "blockNumber": "0x2bea9f3",
          "blockTimestamp": "0x6a5bc20f",
          "transactionHash": "0xf9c77928c4cb17985b1e65d41a29e5ccd36b644689a31e6da01669d9c7cc7ddf",
          "transactionIndex": "0x3",
          "logIndex": "0x9",
          "removed": false
        }
      ],
      "logsBloom": "0x00000000000000000000000000800040000000000000000000000000000000000000000000000000000000000000000000000000000000000000000000000000000000000000000000000008000000000000000001000000000000000000000000000000020000000000000000000800000000000000000000000010000000000000000000000000000000000000000000000000000000000000000000000000000000000000000000000000000020000000000000000000000000000000000000000002000000000000000000000000000000000000000000000000000022000000000000000000000000000000000000040000000000000000000000000000",
      "transactionHash": "0xf9c77928c4cb17985b1e65d41a29e5ccd36b644689a31e6da01669d9c7cc7ddf",
      "transactionIndex": "0x3",
      "blockHash": "0x192ed236bdd9770f22977fd4c15232fa2090a3c16310998c2b1d2592f68c487e",
      "blockNumber": "0x2bea9f3",
      "gasUsed": "0x1ccb1",
      "effectiveGasPrice": "0x1802caa604",
      "from": "0xaca8ee562e9535071535977c9976e7012b3e9dd2",
      "to": "0x77b565e33cb681893ea21f36454428b5690cca6a",
      "contractAddress": null
    },
    {
      "type": "0x2",
      "status": "0x1",
      "cumulativeGasUsed": "0x5999c",
      "logs": [
        {
          "address": "0x5c115d764f36bdb93ce5626f21c96c8f6980bdb7",
          "topics": [
            "0xda22159a82ab73be8871dc1966256c1cab918d1d6ebede2ea9bdedd72d1aff2b",
            "0x000000000000000000000000ab542a297d8192a1feb25f2dbc054f3cf4a832bb"
          ],
          "data": "0x0000000000000000000000000000000000000000000000000000000000000001000000000000000000000000000000000000000000000000000000000000000100000000000000000000000077b565e33cb681893ea21f36454428b5690cca6a000000000000000000000000097fdbe4f9b8a307c04dce58999161d84bb5afd300000000000000000000000000000000000000000000000000000000000000000000000000000000000000000000000000000000000000000000000000000000",
          "blockHash": "0xa69bfb715a092c6e99746e39f1f0dfbf50abb6bbaccd287dd8f0716a0e02054f",
          "blockNumber": "0x2bea9f6",
          "blockTimestamp": "0x6a5bc210",
          "transactionHash": "0x5cbf2ec94b35d811fa8c72a5f18d3d75225cf5ed7b034723416b4852bbbd4dc3",
          "transactionIndex": "0x2",
          "logIndex": "0x5",
          "removed": false
        }
      ],
      "logsBloom": "0x00000000000000400000000000000000100000000000000000000000000000000000000000000000000000000000000000000000000000000000000000000000000000000000000000000000000000000000000000000000000000000800100000000000002000000000000000000000000000000001000000000000000000000000000000000000000000000000000000000000400000000000000000000000000000800000000000000000000000000000000000000000000000000000008000000000000000000000000000000000000000000000000000000000000000000000000000000000000000000000000000000000000000000000000000000000",
      "transactionHash": "0x5cbf2ec94b35d811fa8c72a5f18d3d75225cf5ed7b034723416b4852bbbd4dc3",
      "transactionIndex": "0x2",
      "blockHash": "0xa69bfb715a092c6e99746e39f1f0dfbf50abb6bbaccd287dd8f0716a0e02054f",
      "blockNumber": "0x2bea9f6",
      "gasUsed": "0x229e2",
      "effectiveGasPrice": "0x1802caa604",
      "from": "0xaca8ee562e9535071535977c9976e7012b3e9dd2",
      "to": "0x5c115d764f36bdb93ce5626f21c96c8f6980bdb7",
      "contractAddress": null
    }
  ],
  "libraries": [],
  "pending": [],
  "returns": {},
  "timestamp": 1784398347428,
  "chain": 10143,
  "commit": "4c08267"
}